{
  "_format": "hh-sol-artifact-1",
  "contractName": "Coinflip",
  "sourceName": "contracts/Coinflip.sol",
  "abi": [
    {
      "inputs": [],
      "stateMutability": "nonpayable",
      "type": "constructor"
    },
    {
      "anonymous": false,
      "inputs": [
        {
          "indexed": true,
          "internalType": "address",
          "name": "player",
          "type": "address"
        },
        {
          "indexed": false,
          "internalType": "uint256",
          "name": "amount",
          "type": "uint256"
        },
        {
          "indexed": false,
          "internalType": "bool",
          "name": "result",
          "type": "bool"
        },
        {
          "indexed": false,
          "internalType": "uint256",
          "name": "payout",
          "type": "uint256"
        }
      ],
      "name": "Flip",
      "type": "event"
    },
    {
      "inputs": [],
      "name": "flip",
      "outputs": [],
      "stateMutability": "payable",
      "type": "function"
    },
    {
      "inputs": [],
      "name": "fundContract",
      "outputs": [],
      "stateMutability": "payable",
      "type": "function"
    },
    {
      "inputs": [],
      "name": "getBalance",
      "outputs": [
        {
          "internalType": "uint256",
          "name": "",
          "type": "uint256"
        }
      ],
      "stateMutability": "view",
      "type": "function"
    },
    {
      "inputs": [],
      "name": "maxBet",
      "outputs": [
        {
          "internalType": "uint256",
          "name": "",
          "type": "uint256"
        }
      ],
      "stateMutability": "view",
      "type": "function"
    },
    {
      "inputs": [],
      "name": "minBet",
      "outputs": [
        {
          "internalType": "uint256",
          "name": "",
          "type": "uint256"
        }
      ],
      "stateMutability": "view",
      "type": "function"
    },
    {
      "inputs": [],
      "name": "owner",
      "outputs": [
        {
          "internalType": "address",
          "name": "",
          "type": "address"
        }
      ],
      "stateMutability": "view",
      "type": "function"
    },
    {
      "inputs": [],
      "name": "withdraw",
      "outputs": [],
      "stateMutability": "nonpayable",
      "type": "function"
    }
  ],
  "bytecode": "0x6080604052662386f26fc10000600155670de0b6b3a764000060025534801561002757600080fd5b50336000806101000a81548173ffffffffffffffffffffffffffffffffffffffff021916908373ffffffffffffffffffffffffffffffffffffffff160217905550610ba0806100776000396000f3fe6080604052600436106100705760003560e01c80638da5cb5b1161004e5780638da5cb5b146100e25780639619367d1461010d578063bd097e2114610138578063cde4efa91461014257610070565b806312065fe0146100755780632e5b2168146100a05780633ccfd60b146100cb575b600080fd5b34801561008157600080fd5b5061008a61014c565b60405161009791906105cf565b60405180910390f35b3480156100ac57600080fd5b506100b5610154565b6040516100c291906105cf565b60405180910390f35b3480156100d757600080fd5b506100e061015a565b005b3480156100ee57600080fd5b506100f761029d565b604051610104919061062b565b60405180910390f35b34801561011957600080fd5b506101226102c1565b60405161012f91906105cf565b60405180910390f35b6101406102c7565b005b61014a610357565b005b600047905090565b60025481565b60008054906101000a900473ffffffffffffffffffffffffffffffffffffffff1673ffffffffffffffffffffffffffffffffffffffff163373ffffffffffffffffffffffffffffffffffffffff16146101e8576040517f08c379a00000000000000000000000000000000000000000000000000000000081526004016101df906106a3565b60405180910390fd5b600047905060003373ffffffffffffffffffffffffffffffffffffffff1682604051610213906106f4565b60006040518083038185875af1925050503d8060008114610250576040519150601f19603f3d011682016040523d82523d6000602084013e610255565b606091505b5050905080610299576040517f08c379a000000000000000000000000000000000000000000000000000000000815260040161029090610755565b60405180910390fd5b5050565b60008054906101000a900473ffffffffffffffffffffffffffffffffffffffff1681565b60015481565b60008054906101000a900473ffffffffffffffffffffffffffffffffffffffff1673ffffffffffffffffffffffffffffffffffffffff163373ffffffffffffffffffffffffffffffffffffffff1614610355576040517f08c379a000000000000000000000000000000000000000000000000000000000815260040161034c906107c1565b60405180910390fd5b565b600154341015801561036b57506002543411155b6103aa576040517f08c379a00000000000000000000000000000000000000000000000000000000081526004016103a19061082d565b60405180910390fd5b60006103b4610575565b905060008082149050801561051d5760006002346103d2919061087c565b905080471015610417576040517f08c379a000000000000000000000000000000000000000000000000000000000815260040161040e9061090a565b60405180910390fd5b60003373ffffffffffffffffffffffffffffffffffffffff168260405161043d906106f4565b60006040518083038185875af1925050503d806000811461047a576040519150601f19603f3d011682016040523d82523d6000602084013e61047f565b606091505b50509050806104c3576040517f08c379a00000000000000000000000000000000000000000000000000000000081526004016104ba90610976565b60405180910390fd5b3373ffffffffffffffffffffffffffffffffffffffff167f8c345e5d43c40387bdf57a9a85282c6e718b4126efa2c6ce8a20750072b7085f3460018560405161050e939291906109b1565b60405180910390a25050610571565b3373ffffffffffffffffffffffffffffffffffffffff167f8c345e5d43c40387bdf57a9a85282c6e718b4126efa2c6ce8a20750072b7085f3460008060405161056893929190610a2d565b60405180910390a25b5050565b6000600242443360405160200161058e93929190610acd565b6040516020818303038152906040528051906020012060001c6105b19190610b39565b905090565b6000819050919050565b6105c9816105b6565b82525050565b60006020820190506105e460008301846105c0565b92915050565b600073ffffffffffffffffffffffffffffffffffffffff82169050919050565b6000610615826105ea565b9050919050565b6106258161060a565b82525050565b6000602082019050610640600083018461061c565b92915050565b600082825260208201905092915050565b7f4f6e6c79206f776e65722063616e207769746864726177000000000000000000600082015250565b600061068d601783610646565b915061069882610657565b602082019050919050565b600060208201905081810360008301526106bc81610680565b9050919050565b600081905092915050565b50565b60006106de6000836106c3565b91506106e9826106ce565b600082019050919050565b60006106ff826106d1565b9150819050919050565b7f4661696c656420746f2077697468647261770000000000000000000000000000600082015250565b600061073f601283610646565b915061074a82610709565b602082019050919050565b6000602082019050818103600083015261076e81610732565b9050919050565b7f4f6e6c79206f776e65722063616e2066756e6400000000000000000000000000600082015250565b60006107ab601383610646565b91506107b682610775565b602082019050919050565b600060208201905081810360008301526107da8161079e565b9050919050565b7f42657420616d6f756e74206f7574206f662072616e6765000000000000000000600082015250565b6000610817601783610646565b9150610822826107e1565b602082019050919050565b600060208201905081810360008301526108468161080a565b9050919050565b7f4e487b7100000000000000000000000000000000000000000000000000000000600052601160045260246000fd5b6000610887826105b6565b9150610892836105b6565b92508282026108a0816105b6565b915082820484148315176108b7576108b661084d565b5b5092915050565b7f436f6e7472616374206f7574206f662066756e64730000000000000000000000600082015250565b60006108f4601583610646565b91506108ff826108be565b602082019050919050565b60006020820190508181036000830152610923816108e7565b9050919050565b7f4661696c656420746f2073656e64204574686572000000000000000000000000600082015250565b6000610960601483610646565b915061096b8261092a565b602082019050919050565b6000602082019050818103600083015261098f81610953565b9050919050565b60008115159050919050565b6109ab81610996565b82525050565b60006060820190506109c660008301866105c0565b6109d360208301856109a2565b6109e060408301846105c0565b949350505050565b6000819050919050565b6000819050919050565b6000610a17610a12610a0d846109e8565b6109f2565b6105b6565b9050919050565b610a27816109fc565b82525050565b6000606082019050610a4260008301866105c0565b610a4f60208301856109a2565b610a5c6040830184610a1e565b949350505050565b6000819050919050565b610a7f610a7a826105b6565b610a64565b82525050565b60008160601b9050919050565b6000610a9d82610a85565b9050919050565b6000610aaf82610a92565b9050919050565b610ac7610ac28261060a565b610aa4565b82525050565b6000610ad98286610a6e565b602082019150610ae98285610a6e565b602082019150610af98284610ab6565b601482019150819050949350505050565b7f4e487b7100000000000000000000000000000000000000000000000000000000600052601260045260246000fd5b6000610b44826105b6565b9150610b4f836105b6565b925082610b5f57610b5e610b0a565b5b82820690509291505056fea2646970667358221220cdfa76b1300a5f89f0a20ed67581ee40f77c8f73fbf0c812557ed3248ffed0c264736f6c63430008120033",
  "linkReferences": {},
  "deployedLinkReferences": {}
}